{
  "contractName": "DataAuditTrail",
  "abi": [
    {
      "anonymous": false,
      "inputs": [
        {
          "indexed": true,
          "internalType": "address",
          "name": "user",
          "type": "address"
        },
        {
          "indexed": false,
          "internalType": "string",
          "name": "encryptedData",
          "type": "string"
        },
        {
          "indexed": false,
          "internalType": "uint256",
          "name": "timestamp",
          "type": "uint256"
        }
      ],
      "name": "DataStored",
      "type": "event"
    },
    {
      "anonymous": false,
      "inputs": [
        {
          "indexed": true,
          "internalType": "address",
          "name": "user",
          "type": "address"
        },
        {
          "indexed": false,
          "internalType": "string",
          "name": "encryptedLog",
          "type": "string"
        },
        {
          "indexed": false,
          "internalType": "uint256",
          "name": "timestamp",
          "type": "uint256"
        }
      ],
      "name": "LogStored",
      "type": "event"
    },
    {
      "inputs": [
        {
          "internalType": "uint256",
          "name": "",
          "type": "uint256"
        }
      ],
      "name": "dataEntries",
      "outputs": [
        {
          "internalType": "address",
          "name": "user",
          "type": "address"
        },
        {
          "internalType": "string",
          "name": "encryptedData",
          "type": "string"
        },
        {
          "internalType": "uint256",
          "name": "timestamp",
          "type": "uint256"
        }
      ],
      "stateMutability": "view",
      "type": "function"
    },
    {
      "inputs": [
        {
          "internalType": "uint256",
          "name": "",
          "type": "uint256"
        }
      ],
      "name": "logEntries",
      "outputs": [
        {
          "internalType": "address",
          "name": "user",
          "type": "address"
        },
        {
          "internalType": "string",
          "name": "encryptedLog",
          "type": "string"
        },
        {
          "internalType": "uint256",
          "name": "timestamp",
          "type": "uint256"
        }
      ],
      "stateMutability": "view",
      "type": "function"
    },
    {
      "inputs": [
        {
          "internalType": "string",
          "name": "_encryptedData",
          "type": "string"
        }
      ],
      "name": "storeData",
      "outputs": [],
      "stateMutability": "nonpayable",
      "type": "function"
    },
    {
      "inputs": [
        {
          "internalType": "string",
          "name": "_encryptedLog",
          "type": "string"
        }
      ],
      "name": "storeLog",
      "outputs": [],
      "stateMutability": "nonpayable",
      "type": "function"
    },
    {
      "inputs": [],
      "name": "getDataEntries",
      "outputs": [
        {
          "components": [
            {
              "internalType": "address",
              "name": "user",
              "type": "address"
            },
            {
              "internalType": "string",
              "name": "encryptedData",
              "type": "string"
            },
            {
              "internalType": "uint256",
              "name": "timestamp",
              "type": "uint256"
            }
          ],
          "internalType": "struct DataAuditTrail.DataEntry[]",
          "name": "",
          "type": "tuple[]"
        }
      ],
      "stateMutability": "view",
      "type": "function"
    },
    {
      "inputs": [],
      "name": "getLogEntries",
      "outputs": [
        {
          "components": [
            {
              "internalType": "address",
              "name": "user",
              "type": "address"
            },
            {
              "internalType": "string",
              "name": "encryptedLog",
              "type": "string"
            },
            {
              "internalType": "uint256",
              "name": "timestamp",
              "type": "uint256"
            }
          ],
          "internalType": "struct DataAuditTrail.LogEntry[]",
          "name": "",
          "type": "tuple[]"
        }
      ],
      "stateMutability": "view",
      "type": "function"
    }
  ],
  "bytecode": "0x608060405234801561000f575f80fd5b506110888061001d5f395ff3fe608060405234801561000f575f80fd5b5060043610610060575f3560e01c8063325f4658146100645780634c4a6cb61461009657806388702ee9146100b4578063f2e1d562146100e6578063fb218f5f14610102578063ffad0c8f1461011e575b5f80fd5b61007e600480360381019061007991906107f3565b61013c565b60405161008d939291906108f6565b60405180910390f35b61009e610215565b6040516100ab9190610aa0565b60405180910390f35b6100ce60048036038101906100c991906107f3565b61035f565b6040516100dd939291906108f6565b60405180910390f35b61010060048036038101906100fb9190610bec565b610439565b005b61011c60048036038101906101179190610bec565b610550565b005b610126610666565b6040516101339190610d3b565b60405180910390f35b5f818154811061014a575f80fd5b905f5260205f2090600302015f91509050805f015f9054906101000a900473ffffffffffffffffffffffffffffffffffffffff169080600101805461018e90610d88565b80601f01602080910402602001604051908101604052809291908181526020018280546101ba90610d88565b80156102055780601f106101dc57610100808354040283529160200191610205565b820191905f5260205f20905b8154815290600101906020018083116101e857829003601f168201915b5050505050908060020154905083565b60606001805480602002602001604051908101604052809291908181526020015f905b82821015610356578382905f5260205f2090600302016040518060600160405290815f82015f9054906101000a900473ffffffffffffffffffffffffffffffffffffffff1673ffffffffffffffffffffffffffffffffffffffff1673ffffffffffffffffffffffffffffffffffffffff1681526020016001820180546102bd90610d88565b80601f01602080910402602001604051908101604052809291908181526020018280546102e990610d88565b80156103345780601f1061030b57610100808354040283529160200191610334565b820191905f5260205f20905b81548152906001019060200180831161031757829003601f168201915b5050505050815260200160028201548152505081526020019060010190610238565b50505050905090565b6001818154811061036e575f80fd5b905f5260205f2090600302015f91509050805f015f9054906101000a900473ffffffffffffffffffffffffffffffffffffffff16908060010180546103b290610d88565b80601f01602080910402602001604051908101604052809291908181526020018280546103de90610d88565b80156104295780601f1061040057610100808354040283529160200191610429565b820191905f5260205f20905b81548152906001019060200180831161040c57829003601f168201915b5050505050908060020154905083565b5f60405180606001604052803373ffffffffffffffffffffffffffffffffffffffff168152602001838152602001428152509050600181908060018154018082558091505060019003905f5260205f2090600302015f909190919091505f820151815f015f6101000a81548173ffffffffffffffffffffffffffffffffffffffff021916908373ffffffffffffffffffffffffffffffffffffffff16021790555060208201518160010190816104ef9190610f55565b506040820151816002015550503373ffffffffffffffffffffffffffffffffffffffff167f9b5582fcadabbf7916b38365bc43eece4b87042ef7a93b751261a9e2701475098342604051610544929190611024565b60405180910390a25050565b5f60405180606001604052803373ffffffffffffffffffffffffffffffffffffffff1681526020018381526020014281525090505f81908060018154018082558091505060019003905f5260205f2090600302015f909190919091505f820151815f015f6101000a81548173ffffffffffffffffffffffffffffffffffffffff021916908373ffffffffffffffffffffffffffffffffffffffff16021790555060208201518160010190816106059190610f55565b506040820151816002015550503373ffffffffffffffffffffffffffffffffffffffff167fe7cec34b92572ec5dac7234dad9907b80766a82209aa83f8420723063ad5872a834260405161065a929190611024565b60405180910390a25050565b60605f805480602002602001604051908101604052809291908181526020015f905b828210156107a6578382905f5260205f2090600302016040518060600160405290815f82015f9054906101000a900473ffffffffffffffffffffffffffffffffffffffff1673ffffffffffffffffffffffffffffffffffffffff1673ffffffffffffffffffffffffffffffffffffffff16815260200160018201805461070d90610d88565b80601f016020809104026020016040519081016040528092919081815260200182805461073990610d88565b80156107845780601f1061075b57610100808354040283529160200191610784565b820191905f5260205f20905b81548152906001019060200180831161076757829003601f168201915b5050505050815260200160028201548152505081526020019060010190610688565b50505050905090565b5f604051905090565b5f80fd5b5f80fd5b5f819050919050565b6107d2816107c0565b81146107dc575f80fd5b50565b5f813590506107ed816107c9565b92915050565b5f60208284031215610808576108076107b8565b5b5f610815848285016107df565b91505092915050565b5f73ffffffffffffffffffffffffffffffffffffffff82169050919050565b5f6108478261081e565b9050919050565b6108578161083d565b82525050565b5f81519050919050565b5f82825260208201905092915050565b5f5b83811015610894578082015181840152602081019050610879565b5f8484015250505050565b5f601f19601f8301169050919050565b5f6108b98261085d565b6108c38185610867565b93506108d3818560208601610877565b6108dc8161089f565b840191505092915050565b6108f0816107c0565b82525050565b5f6060820190506109095f83018661084e565b818103602083015261091b81856108af565b905061092a60408301846108e7565b949350505050565b5f81519050919050565b5f82825260208201905092915050565b5f819050602082019050919050565b6109648161083d565b82525050565b5f82825260208201905092915050565b5f6109848261085d565b61098e818561096a565b935061099e818560208601610877565b6109a78161089f565b840191505092915050565b6109bb816107c0565b82525050565b5f606083015f8301516109d65f86018261095b565b50602083015184820360208601526109ee828261097a565b9150506040830151610a0360408601826109b2565b508091505092915050565b5f610a1983836109c1565b905092915050565b5f602082019050919050565b5f610a3782610932565b610a41818561093c565b935083602082028501610a538561094c565b805f5b85811015610a8e5784840389528151610a6f8582610a0e565b9450610a7a83610a21565b925060208a01995050600181019050610a56565b50829750879550505050505092915050565b5f6020820190508181035f830152610ab88184610a2d565b905092915050565b5f80fd5b5f80fd5b7f4e487b71000000000000000000000000000000000000000000000000000000005f52604160045260245ffd5b610afe8261089f565b810181811067ffffffffffffffff82111715610b1d57610b1c610ac8565b5b80604052505050565b5f610b2f6107af565b9050610b3b8282610af5565b919050565b5f67ffffffffffffffff821115610b5a57610b59610ac8565b5b610b638261089f565b9050602081019050919050565b828183375f83830152505050565b5f610b90610b8b84610b40565b610b26565b905082815260208101848484011115610bac57610bab610ac4565b5b610bb7848285610b70565b509392505050565b5f82601f830112610bd357610bd2610ac0565b5b8135610be3848260208601610b7e565b91505092915050565b5f60208284031215610c0157610c006107b8565b5b5f82013567ffffffffffffffff811115610c1e57610c1d6107bc565b5b610c2a84828501610bbf565b91505092915050565b5f81519050919050565b5f82825260208201905092915050565b5f819050602082019050919050565b5f606083015f830151610c715f86018261095b565b5060208301518482036020860152610c89828261097a565b9150506040830151610c9e60408601826109b2565b508091505092915050565b5f610cb48383610c5c565b905092915050565b5f602082019050919050565b5f610cd282610c33565b610cdc8185610c3d565b935083602082028501610cee85610c4d565b805f5b85811015610d295784840389528151610d0a8582610ca9565b9450610d1583610cbc565b925060208a01995050600181019050610cf1565b50829750879550505050505092915050565b5f6020820190508181035f830152610d538184610cc8565b905092915050565b7f4e487b71000000000000000000000000000000000000000000000000000000005f52602260045260245ffd5b5f6002820490506001821680610d9f57607f821691505b602082108103610db257610db1610d5b565b5b50919050565b5f819050815f5260205f209050919050565b5f6020601f8301049050919050565b5f82821b905092915050565b5f60088302610e147fffffffffffffffffffffffffffffffffffffffffffffffffffffffffffffffff82610dd9565b610e1e8683610dd9565b95508019841693508086168417925050509392505050565b5f819050919050565b5f610e59610e54610e4f846107c0565b610e36565b6107c0565b9050919050565b5f819050919050565b610e7283610e3f565b610e86610e7e82610e60565b848454610de5565b825550505050565b5f90565b610e9a610e8e565b610ea5818484610e69565b505050565b5b81811015610ec857610ebd5f82610e92565b600181019050610eab565b5050565b601f821115610f0d57610ede81610db8565b610ee784610dca565b81016020851015610ef6578190505b610f0a610f0285610dca565b830182610eaa565b50505b505050565b5f82821c905092915050565b5f610f2d5f1984600802610f12565b1980831691505092915050565b5f610f458383610f1e565b9150826002028217905092915050565b610f5e8261085d565b67ffffffffffffffff811115610f7757610f76610ac8565b5b610f818254610d88565b610f8c828285610ecc565b5f60209050601f831160018114610fbd575f8415610fab578287015190505b610fb58582610f3a565b86555061101c565b601f198416610fcb86610db8565b5f5b82811015610ff257848901518255600182019150602085019450602081019050610fcd565b8683101561100f578489015161100b601f891682610f1e565b8355505b6001600288020188555050505b505050505050565b5f6040820190508181035f83015261103c81856108af565b905061104b60208301846108e7565b939250505056fea264697066735822122032d22e0ba2457791d61fa81e3cbc1d6a5663aae66dbd04e1a2395f3d3d5c7fc864736f6c63430008150033",
  "immutableReferences": {},
  "source": "// SPDX-License-Identifier: MIT\r\npragma solidity ^0.8.0;\r\n\r\ncontract DataAuditTrail {\r\n    // Struct to hold data entries\r\n    struct DataEntry {\r\n        address user;\r\n        string encryptedData;\r\n        uint256 timestamp;\r\n    }\r\n\r\n    // Struct to hold log entries\r\n    struct LogEntry {\r\n        address user;\r\n        string encryptedLog;\r\n        uint256 timestamp;\r\n    }\r\n\r\n    // Arrays to store data entries and audit logs\r\n    DataEntry[] public dataEntries;\r\n    LogEntry[] public logEntries;\r\n\r\n    // Event to notify when data is stored\r\n    event DataStored(address indexed user, string encryptedData, uint256 timestamp);\r\n\r\n    // Event to notify when a log is stored\r\n    event LogStored(address indexed user, string encryptedLog, uint256 timestamp);\r\n\r\n    // Function to store encrypted data\r\n    function storeData(string memory _encryptedData) public {\r\n        DataEntry memory newData = DataEntry({\r\n            user: msg.sender,\r\n            encryptedData: _encryptedData,\r\n            timestamp: block.timestamp\r\n        });\r\n        dataEntries.push(newData);\r\n        emit DataStored(msg.sender, _encryptedData, block.timestamp);\r\n    }\r\n\r\n    // Function to store encrypted log entries\r\n    function storeLog(string memory _encryptedLog) public {\r\n        LogEntry memory newLog = LogEntry({\r\n            user: msg.sender,\r\n            encryptedLog: _encryptedLog,\r\n            timestamp: block.timestamp\r\n        });\r\n        logEntries.push(newLog);\r\n        emit LogStored(msg.sender, _encryptedLog, block.timestamp);\r\n    }\r\n\r\n    // Function to get all data entries\r\n    function getDataEntries() public view returns (DataEntry[] memory) {\r\n        return dataEntries;\r\n    }\r\n\r\n    // Function to get all log entries\r\n    function getLogEntries() public view returns (LogEntry[] memory) {\r\n        return logEntries;\r\n    }\r\n}\r\n",
  "sourcePath": "P:\\EthicNexus-main\\EthicNexus-main\\contracts\\DataAuditTrail.sol",
  "compiler": {
    "name": "solc",
    "version": "0.8.21+commit.d9974bed.Emscripten.clang"
  },
  "schemaVersion": "3.4.16",
  "updatedAt": "2024-11-12T06:13:29.791Z",
  "devdoc": {
    "kind": "dev",
    "methods": {},
    "version": 1
  },
  "userdoc": {
    "kind": "user",
    "methods": {},
    "version": 1
  }
}